{
  "transactions": [
    {
      "hash": "0x2f4b77797f11ed99d44984419a9b9636e4a72e142ba18af3ecd8b48126bded64",
      "transactionType": "CALL",
      "contractName": null,
      "contractAddress": "0x8fbe05f9597ff87431d293df7da2841c95aefef9",
      "function": "mintToken(uint256)",
      "arguments": [
        "100000000000"
      ],
      "transaction": {
        "from": "0x2eff269b2ff414184fd762360a9920f3dec73533",
        "to": "0x8fbe05f9597ff87431d293df7da2841c95aefef9",
        "gas": "0x1cb81",
        "value": "0x0",
        "input": "0xc634d032000000000000000000000000000000000000000000000000000000174876e800",
        "nonce": "0x25",
        "chainId": "0xaa36a7"
      },
      "additionalContracts": [],
      "isFixedGasLimit": false
    }
  ],
  "receipts": [
    {
      "status": "0x1",
      "cumulativeGasUsed": "0x6eb772",
      "logs": [
        {
          "address": "0xb6f3f84f0d44a91b9fc5c7cb381bd23c1dcf246f",
          "topics": [
            "0xddf252ad1be2c89b69c2b068fc378daa952ba7f163c4a11628f55a4df523b3ef",
            "0x0000000000000000000000000000000000000000000000000000000000000000",
            "0x0000000000000000000000002eff269b2ff414184fd762360a9920f3dec73533"
          ],
          "data": "0x000000000000000000000000000000000000000000000000000000174876e800",
          "blockHash": "0xcaefbabda6371280f333ef09e29e03fe4d0c888203fbc1bbb9b77392131a493e",
          "blockNumber": "0x904743",
          "blockTimestamp": "0x68f6c88c",
          "transactionHash": "0x2f4b77797f11ed99d44984419a9b9636e4a72e142ba18af3ecd8b48126bded64",
          "transactionIndex": "0x45",
          "logIndex": "0x3e",
          "removed": false
        },
        {
          "address": "0xb6f3f84f0d44a91b9fc5c7cb381bd23c1dcf246f",
          "topics": [
            "0x30385c845b448a36257a6a1716e6ad2e1bc2cbe333cde1e69fe849ad6511adfe",
            "0x0000000000000000000000002eff269b2ff414184fd762360a9920f3dec73533"
          ],
          "data": "0x000000000000000000000000000000000000000000000000000000174876e800",
          "blockHash": "0xcaefbabda6371280f333ef09e29e03fe4d0c888203fbc1bbb9b77392131a493e",
          "blockNumber": "0x904743",
          "blockTimestamp": "0x68f6c88c",
          "transactionHash": "0x2f4b77797f11ed99d44984419a9b9636e4a72e142ba18af3ecd8b48126bded64",
          "transactionIndex": "0x45",
          "logIndex": "0x3f",
          "removed": false
        }
      ],
      "logsBloom": "0x00000000000000000000000000000000000000000000000000000000000000220000000000000000000000000000000000000000000000000000000000000000000000000000000000000008000000000000000000000000000000000000000000000000020000000000000000000800000000000000000080000010000040000000000008000000000000001000000000000000000000000000000000000000000000000000000000800000000000000000000000000000000000000000000000000002020000000000000000000000000000000040000000000000000020000000000000000000000000000000000000000000000000000000000000000000",
      "type": "0x2",
      "transactionHash": "0x2f4b77797f11ed99d44984419a9b9636e4a72e142ba18af3ecd8b48126bded64",
      "transactionIndex": "0x45",
      "blockHash": "0xcaefbabda6371280f333ef09e29e03fe4d0c888203fbc1bbb9b77392131a493e",
      "blockNumber": "0x904743",
      "gasUsed": "0x13a31",
      "effectiveGasPrice": "0xf4248",
      "from": "0x2eff269b2ff414184fd762360a9920f3dec73533",
      "to": "0x8fbe05f9597ff87431d293df7da2841c95aefef9",
      "contractAddress": null
    }
  ],
  "libraries": [],
  "pending": [],
  "returns": {},
  "timestamp": 1761003661779,
  "chain": 11155111,
  "commit": "7afee39"
}