{
  "transactions": [
    {
      "hash": "0x0fcd22d995e19fe11e7762bb3ce12c58dcaa8664fa03cd5cadc06c1549fc03a7",
      "transactionType": "CALL",
      "contractName": null,
      "contractAddress": "0x2a92efc7f7f98243333c36d67847e8ed6886010c",
      "function": "mintToken(uint256)",
      "arguments": [
        "100000000000000000000"
      ],
      "transaction": {
        "from": "0x2eff269b2ff414184fd762360a9920f3dec73533",
        "to": "0x2a92efc7f7f98243333c36d67847e8ed6886010c",
        "gas": "0x1b22b",
        "value": "0x0",
        "input": "0xc634d0320000000000000000000000000000000000000000000000056bc75e2d63100000",
        "nonce": "0x27",
        "chainId": "0xaa36a7"
      },
      "additionalContracts": [],
      "isFixedGasLimit": false
    },
    {
      "hash": "0x328fdf5c6767e6463287b6ef3f2d00879f8bf4230007a3972d5569f9f0ed84a5",
      "transactionType": "CALL",
      "contractName": null,
      "contractAddress": "0x8fbe05f9597ff87431d293df7da2841c95aefef9",
      "function": "mintToken(uint256)",
      "arguments": [
        "200000000000000000000"
      ],
      "transaction": {
        "from": "0x2eff269b2ff414184fd762360a9920f3dec73533",
        "to": "0x8fbe05f9597ff87431d293df7da2841c95aefef9",
        "gas": "0xf9a4",
        "value": "0x0",
        "input": "0xc634d03200000000000000000000000000000000000000000000000ad78ebc5ac6200000",
        "nonce": "0x28",
        "chainId": "0xaa36a7"
      },
      "additionalContracts": [],
      "isFixedGasLimit": false
    }
  ],
  "receipts": [
    {
      "status": "0x1",
      "cumulativeGasUsed": "0x52da5c",
      "logs": [
        {
          "address": "0x815adde6cc8f8bd5351494db5649579c489bc797",
          "topics": [
            "0xddf252ad1be2c89b69c2b068fc378daa952ba7f163c4a11628f55a4df523b3ef",
            "0x0000000000000000000000000000000000000000000000000000000000000000",
            "0x0000000000000000000000002eff269b2ff414184fd762360a9920f3dec73533"
          ],
          "data": "0x0000000000000000000000000000000000000000000000056bc75e2d63100000",
          "blockHash": "0xf62b9eced2c65c920cf21db257fa58bc6af9fa6ea3603b2ee90667d9b72c61cd",
          "blockNumber": "0x90475e",
          "blockTimestamp": "0x68f6c9dc",
          "transactionHash": "0x0fcd22d995e19fe11e7762bb3ce12c58dcaa8664fa03cd5cadc06c1549fc03a7",
          "transactionIndex": "0x45",
          "logIndex": "0x44",
          "removed": false
        },
        {
          "address": "0x815adde6cc8f8bd5351494db5649579c489bc797",
          "topics": [
            "0x30385c845b448a36257a6a1716e6ad2e1bc2cbe333cde1e69fe849ad6511adfe",
            "0x0000000000000000000000002eff269b2ff414184fd762360a9920f3dec73533"
          ],
          "data": "0x0000000000000000000000000000000000000000000000056bc75e2d63100000",
          "blockHash": "0xf62b9eced2c65c920cf21db257fa58bc6af9fa6ea3603b2ee90667d9b72c61cd",
          "blockNumber": "0x90475e",
          "blockTimestamp": "0x68f6c9dc",
          "transactionHash": "0x0fcd22d995e19fe11e7762bb3ce12c58dcaa8664fa03cd5cadc06c1549fc03a7",
          "transactionIndex": "0x45",
          "logIndex": "0x45",
          "removed": false
        }
      ],
      "logsBloom": "0x00000000000000000000000000000000000000000000000000000000000000220000000000000000000000000000000000000000000000000000000000000000000000000000000000000008000000000000000000000000000000000000000000000000020000000000100000000800000000000000000080000010000040000000000000000000000000001000000000000000000000000000000000000000000000000000000000000000000000000000000000000000000000000000000000000002000000000000200000000000000000000040200000000000000020000000000000000000000000000000000000000000000000000000000000000000",
      "type": "0x2",
      "transactionHash": "0x0fcd22d995e19fe11e7762bb3ce12c58dcaa8664fa03cd5cadc06c1549fc03a7",
      "transactionIndex": "0x45",
      "blockHash": "0xf62b9eced2c65c920cf21db257fa58bc6af9fa6ea3603b2ee90667d9b72c61cd",
      "blockNumber": "0x90475e",
      "gasUsed": "0x13a55",
      "effectiveGasPrice": "0xf4248",
      "from": "0x2eff269b2ff414184fd762360a9920f3dec73533",
      "to": "0x2a92efc7f7f98243333c36d67847e8ed6886010c",
      "contractAddress": null
    },
    {
      "status": "0x1",
      "cumulativeGasUsed": "0x538f19",
      "logs": [
        {
          "address": "0xb6f3f84f0d44a91b9fc5c7cb381bd23c1dcf246f",
          "topics": [
            "0xddf252ad1be2c89b69c2b068fc378daa952ba7f163c4a11628f55a4df523b3ef",
            "0x0000000000000000000000000000000000000000000000000000000000000000",
            "0x0000000000000000000000002eff269b2ff414184fd762360a9920f3dec73533"
          ],
          "data": "0x00000000000000000000000000000000000000000000000ad78ebc5ac6200000",
          "blockHash": "0xf62b9eced2c65c920cf21db257fa58bc6af9fa6ea3603b2ee90667d9b72c61cd",
          "blockNumber": "0x90475e",
          "blockTimestamp": "0x68f6c9dc",
          "transactionHash": "0x328fdf5c6767e6463287b6ef3f2d00879f8bf4230007a3972d5569f9f0ed84a5",
          "transactionIndex": "0x46",
          "logIndex": "0x46",
          "removed": false
        },
        {
          "address": "0xb6f3f84f0d44a91b9fc5c7cb381bd23c1dcf246f",
          "topics": [
            "0x30385c845b448a36257a6a1716e6ad2e1bc2cbe333cde1e69fe849ad6511adfe",
            "0x0000000000000000000000002eff269b2ff414184fd762360a9920f3dec73533"
          ],
          "data": "0x00000000000000000000000000000000000000000000000ad78ebc5ac6200000",
          "blockHash": "0xf62b9eced2c65c920cf21db257fa58bc6af9fa6ea3603b2ee90667d9b72c61cd",
          "blockNumber": "0x90475e",
          "blockTimestamp": "0x68f6c9dc",
          "transactionHash": "0x328fdf5c6767e6463287b6ef3f2d00879f8bf4230007a3972d5569f9f0ed84a5",
          "transactionIndex": "0x46",
          "logIndex": "0x47",
          "removed": false
        }
      ],
      "logsBloom": "0x00000000000000000000000000000000000000000000000000000000000000220000000000000000000000000000000000000000000000000000000000000000000000000000000000000008000000000000000000000000000000000000000000000000020000000000000000000800000000000000000080000010000040000000000008000000000000001000000000000000000000000000000000000000000000000000000000800000000000000000000000000000000000000000000000000002020000000000000000000000000000000040000000000000000020000000000000000000000000000000000000000000000000000000000000000000",
      "type": "0x2",
      "transactionHash": "0x328fdf5c6767e6463287b6ef3f2d00879f8bf4230007a3972d5569f9f0ed84a5",
      "transactionIndex": "0x46",
      "blockHash": "0xf62b9eced2c65c920cf21db257fa58bc6af9fa6ea3603b2ee90667d9b72c61cd",
      "blockNumber": "0x90475e",
      "gasUsed": "0xb4bd",
      "effectiveGasPrice": "0xf4248",
      "from": "0x2eff269b2ff414184fd762360a9920f3dec73533",
      "to": "0x8fbe05f9597ff87431d293df7da2841c95aefef9",
      "contractAddress": null
    }
  ],
  "libraries": [],
  "pending": [],
  "returns": {},
  "timestamp": 1761003997414,
  "chain": 11155111,
  "commit": "7afee39"
}