{
  "transactions": [
    {
      "hash": "0xc6c4faa9797062de93bafff1f7a975e150a4d388755e3834db2af63f977da7e5",
      "transactionType": "CALL",
      "contractName": null,
      "contractAddress": "0xdf47d1c7a23459966182bc1d4d9db2fa2fb83fa5",
      "function": "deposit(uint256)",
      "arguments": [
        "1000000000000000000"
      ],
      "transaction": {
        "from": "0x2eff269b2ff414184fd762360a9920f3dec73533",
        "to": "0xdf47d1c7a23459966182bc1d4d9db2fa2fb83fa5",
        "gas": "0x13b2b",
        "value": "0x0",
        "input": "0xb6b55f250000000000000000000000000000000000000000000000000de0b6b3a7640000",
        "nonce": "0x85",
        "chainId": "0xaa36a7"
      },
      "additionalContracts": [],
      "isFixedGasLimit": false
    }
  ],
  "receipts": [
    {
      "status": "0x1",
      "cumulativeGasUsed": "0x8a847e",
      "logs": [
        {
          "address": "0xbc342203a4ae442a1f20dc48ef2377b33e8dd004",
          "topics": [
            "0xddf252ad1be2c89b69c2b068fc378daa952ba7f163c4a11628f55a4df523b3ef",
            "0x0000000000000000000000002eff269b2ff414184fd762360a9920f3dec73533",
            "0x0000000000000000000000000000000000000000000000000000000000000000"
          ],
          "data": "0x0000000000000000000000000000000000000000000000000de0b6b3a7640000",
          "blockHash": "0xdfbe4f966507343573fbf45ed3fc16cca6281a17fc41a99fc88a6494bc633f05",
          "blockNumber": "0x909a2e",
          "blockTimestamp": "0x68facf00",
          "transactionHash": "0xc6c4faa9797062de93bafff1f7a975e150a4d388755e3834db2af63f977da7e5",
          "transactionIndex": "0x43",
          "logIndex": "0x3d",
          "removed": false
        },
        {
          "address": "0xbc342203a4ae442a1f20dc48ef2377b33e8dd004",
          "topics": [
            "0x696de425f79f4a40bc6d2122ca50507f0efbeabbff86a84871b7196ab8ea8df7",
            "0x0000000000000000000000002eff269b2ff414184fd762360a9920f3dec73533"
          ],
          "data": "0x0000000000000000000000000000000000000000000000000de0b6b3a7640000",
          "blockHash": "0xdfbe4f966507343573fbf45ed3fc16cca6281a17fc41a99fc88a6494bc633f05",
          "blockNumber": "0x909a2e",
          "blockTimestamp": "0x68facf00",
          "transactionHash": "0xc6c4faa9797062de93bafff1f7a975e150a4d388755e3834db2af63f977da7e5",
          "transactionIndex": "0x43",
          "logIndex": "0x3e",
          "removed": false
        },
        {
          "address": "0xdf47d1c7a23459966182bc1d4d9db2fa2fb83fa5",
          "topics": [
            "0x92a31ae4c8ed75b4c37205c75614c5dc9bafdccbc6a6bf9830407636c39128c9",
            "0x422cbb01fc87aad7fb05343fc6de79ce3ebdb63ad0dd5a2c4c2f75ffdd133a34",
            "0x0000000000000000000000002eff269b2ff414184fd762360a9920f3dec73533"
          ],
          "data": "0x0000000000000000000000000000000000000000000000000de0b6b3a764000000000000000000000000000000000000000000000000000000000000000000110000000000000000000000000000000000000000000000000000000000aa36a70000000000000000000000000000000000000000000000000000000000909a2e",
          "blockHash": "0xdfbe4f966507343573fbf45ed3fc16cca6281a17fc41a99fc88a6494bc633f05",
          "blockNumber": "0x909a2e",
          "blockTimestamp": "0x68facf00",
          "transactionHash": "0xc6c4faa9797062de93bafff1f7a975e150a4d388755e3834db2af63f977da7e5",
          "transactionIndex": "0x43",
          "logIndex": "0x3f",
          "removed": false
        }
      ],
      "logsBloom": "0x00000000000000000000000000000000000000008000000000000000000000200004000000000000002000000000000000000000000000000000000800000020000000000000000000000008000000000000001000000000000000000000000000001000060000000000000000000802000000000000001000000010000040000000000080000000000000001000000000000000000000000000000000000000000000000000000000000000000008000000000000000000000000000008000000000002000000000000000000000000000000000000000000000000000020000000000000000000000000080000000000000800000000000000000000000000",
      "type": "0x2",
      "transactionHash": "0xc6c4faa9797062de93bafff1f7a975e150a4d388755e3834db2af63f977da7e5",
      "transactionIndex": "0x43",
      "blockHash": "0xdfbe4f966507343573fbf45ed3fc16cca6281a17fc41a99fc88a6494bc633f05",
      "blockNumber": "0x909a2e",
      "gasUsed": "0xe42e",
      "effectiveGasPrice": "0xf4248",
      "from": "0x2eff269b2ff414184fd762360a9920f3dec73533",
      "to": "0xdf47d1c7a23459966182bc1d4d9db2fa2fb83fa5",
      "contractAddress": null
    }
  ],
  "libraries": [],
  "pending": [],
  "returns": {},
  "timestamp": 1761267455307,
  "chain": 11155111,
  "commit": "1dfeb4d"
}